{
  "contractName": "PredictionMarket",
  "abi": [
    {
      "inputs": [
        {
          "internalType": "address",
          "name": "_oracle",
          "type": "address"
        },
        {
          "internalType": "address",
          "name": "_tokenAddress",
          "type": "address"
        }
      ],
      "stateMutability": "nonpayable",
      "type": "constructor"
    },
    {
      "inputs": [
        {
          "internalType": "enum PredictionMarket.Side",
          "name": "",
          "type": "uint8"
        }
      ],
      "name": "bets",
      "outputs": [
        {
          "internalType": "uint256",
          "name": "",
          "type": "uint256"
        }
      ],
      "stateMutability": "view",
      "type": "function",
      "constant": true
    },
    {
      "inputs": [
        {
          "internalType": "address",
          "name": "",
          "type": "address"
        },
        {
          "internalType": "enum PredictionMarket.Side",
          "name": "",
          "type": "uint8"
        }
      ],
      "name": "betsPerGambler",
      "outputs": [
        {
          "internalType": "uint256",
          "name": "",
          "type": "uint256"
        }
      ],
      "stateMutability": "view",
      "type": "function",
      "constant": true
    },
    {
      "inputs": [],
      "name": "oracle",
      "outputs": [
        {
          "internalType": "address",
          "name": "",
          "type": "address"
        }
      ],
      "stateMutability": "view",
      "type": "function",
      "constant": true
    },
    {
      "inputs": [
        {
          "internalType": "address",
          "name": "_tokenAddress",
          "type": "address"
        }
      ],
      "name": "setTokenAddress",
      "outputs": [],
      "stateMutability": "nonpayable",
      "type": "function"
    },
    {
      "inputs": [
        {
          "internalType": "enum PredictionMarket.Side",
          "name": "_side",
          "type": "uint8"
        },
        {
          "internalType": "uint256",
          "name": "amount",
          "type": "uint256"
        }
      ],
      "name": "placeBet",
      "outputs": [],
      "stateMutability": "nonpayable",
      "type": "function"
    },
    {
      "inputs": [],
      "name": "withdrawGain",
      "outputs": [],
      "stateMutability": "nonpayable",
      "type": "function"
    },
    {
      "inputs": [
        {
          "internalType": "enum PredictionMarket.Side",
          "name": "_winner",
          "type": "uint8"
        },
        {
          "internalType": "enum PredictionMarket.Side",
          "name": "_loser",
          "type": "uint8"
        }
      ],
      "name": "reportResult",
      "outputs": [],
      "stateMutability": "nonpayable",
      "type": "function"
    }
  ],
  "bytecode": "0x60806040523480156200001157600080fd5b5060405162000f9a38038062000f9a83398181016040528101906200003791906200012a565b81600460006101000a81548173ffffffffffffffffffffffffffffffffffffffff021916908373ffffffffffffffffffffffffffffffffffffffff160217905550806001806101000a81548173ffffffffffffffffffffffffffffffffffffffff021916908373ffffffffffffffffffffffffffffffffffffffff160217905550505062000171565b600080fd5b600073ffffffffffffffffffffffffffffffffffffffff82169050919050565b6000620000f282620000c5565b9050919050565b6200010481620000e5565b81146200011057600080fd5b50565b6000815190506200012481620000f9565b92915050565b60008060408385031215620001445762000143620000c0565b5b6000620001548582860162000113565b9250506020620001678582860162000113565b9150509250929050565b610e1980620001816000396000f3fe608060405234801561001057600080fd5b506004361061007d5760003560e01c80637dc0d1d01161005b5780637dc0d1d0146100c45780637e0ecc00146100e25780639d5a373914610112578063dcb3b30e146101425761007d565b806326a4e8d2146100825780632b539c861461009e5780634ec942b7146100a8575b600080fd5b61009c6004803603810190610097919061089d565b61015e565b005b6100a66101a1565b005b6100c260048036038101906100bd91906108ef565b6104a9565b005b6100cc610595565b6040516100d9919061093e565b60405180910390f35b6100fc60048036038101906100f79190610959565b6105bb565b604051610109919061099f565b60405180910390f35b61012c600480360381019061012791906109ba565b6105d3565b604051610139919061099f565b60405180910390f35b61015c60048036038101906101579190610a26565b6105f8565b005b806001806101000a81548173ffffffffffffffffffffffffffffffffffffffff021916908373ffffffffffffffffffffffffffffffffffffffff16021790555050565b6000600360003373ffffffffffffffffffffffffffffffffffffffff1673ffffffffffffffffffffffffffffffffffffffff16815260200190815260200160002060008060000160009054906101000a900460ff16600181111561020857610207610a66565b5b600181111561021a57610219610a66565b5b81526020019081526020016000205490506000811161026e576040517f08c379a000000000000000000000000000000000000000000000000000000000815260040161026590610af2565b60405180910390fd5b6000600260008060000160009054906101000a900460ff16600181111561029857610297610a66565b5b60018111156102aa576102a9610a66565b5b81526020019081526020016000205482600260008060000160019054906101000a900460ff1660018111156102e2576102e1610a66565b5b60018111156102f4576102f3610a66565b5b81526020019081526020016000205461030d9190610b41565b6103179190610bca565b826103229190610bfb565b90506000600360003373ffffffffffffffffffffffffffffffffffffffff1673ffffffffffffffffffffffffffffffffffffffff168152602001908152602001600020600080600181111561037a57610379610a66565b5b600181111561038c5761038b610a66565b5b8152602001908152602001600020819055506000600360003373ffffffffffffffffffffffffffffffffffffffff1673ffffffffffffffffffffffffffffffffffffffff16815260200190815260200160002060006001808111156103f4576103f3610a66565b5b600181111561040657610405610a66565b5b81526020019081526020016000208190555060018054906101000a900473ffffffffffffffffffffffffffffffffffffffff1673ffffffffffffffffffffffffffffffffffffffff16632ccb1b3033836040518363ffffffff1660e01b8152600401610473929190610c51565b600060405180830381600087803b15801561048d57600080fd5b505af11580156104a1573d6000803e3d6000fd5b505050505050565b3373ffffffffffffffffffffffffffffffffffffffff16600460009054906101000a900473ffffffffffffffffffffffffffffffffffffffff1673ffffffffffffffffffffffffffffffffffffffff1614610539576040517f08c379a000000000000000000000000000000000000000000000000000000000815260040161053090610cc6565b60405180910390fd5b816000800160006101000a81548160ff021916908360018111156105605761055f610a66565b5b0217905550806000800160016101000a81548160ff0219169083600181111561058c5761058b610a66565b5b02179055505050565b600460009054906101000a900473ffffffffffffffffffffffffffffffffffffffff1681565b60026020528060005260406000206000915090505481565b6003602052816000526040600020602052806000526040600020600091509150505481565b60008060018054906101000a900473ffffffffffffffffffffffffffffffffffffffff1673ffffffffffffffffffffffffffffffffffffffff163084604051602401610645929190610c51565b6040516020818303038152906040527f9d61d234000000000000000000000000000000000000000000000000000000007bffffffffffffffffffffffffffffffffffffffffffffffffffffffff19166020820180517bffffffffffffffffffffffffffffffffffffffffffffffffffffffff83818316178352505050506040516106cf9190610d60565b600060405180830381855af49150503d806000811461070a576040519150601f19603f3d011682016040523d82523d6000602084013e61070f565b606091505b5091509150600015158215151461075b576040517f08c379a000000000000000000000000000000000000000000000000000000000815260040161075290610dc3565b60405180910390fd5b826002600086600181111561077357610772610a66565b5b600181111561078557610784610a66565b5b815260200190815260200160002060008282546107a29190610bfb565b9250508190555082600360003373ffffffffffffffffffffffffffffffffffffffff1673ffffffffffffffffffffffffffffffffffffffff16815260200190815260200160002060008660018111156107fe576107fd610a66565b5b60018111156108105761080f610a66565b5b8152602001908152602001600020600082825461082d9190610bfb565b9250508190555050505050565b600080fd5b600073ffffffffffffffffffffffffffffffffffffffff82169050919050565b600061086a8261083f565b9050919050565b61087a8161085f565b811461088557600080fd5b50565b60008135905061089781610871565b92915050565b6000602082840312156108b3576108b261083a565b5b60006108c184828501610888565b91505092915050565b600281106108d757600080fd5b50565b6000813590506108e9816108ca565b92915050565b600080604083850312156109065761090561083a565b5b6000610914858286016108da565b9250506020610925858286016108da565b9150509250929050565b6109388161085f565b82525050565b6000602082019050610953600083018461092f565b92915050565b60006020828403121561096f5761096e61083a565b5b600061097d848285016108da565b91505092915050565b6000819050919050565b61099981610986565b82525050565b60006020820190506109b46000830184610990565b92915050565b600080604083850312156109d1576109d061083a565b5b60006109df85828601610888565b92505060206109f0858286016108da565b9150509250929050565b610a0381610986565b8114610a0e57600080fd5b50565b600081359050610a20816109fa565b92915050565b60008060408385031215610a3d57610a3c61083a565b5b6000610a4b858286016108da565b9250506020610a5c85828601610a11565b9150509250929050565b7f4e487b7100000000000000000000000000000000000000000000000000000000600052602160045260246000fd5b600082825260208201905092915050565b7f796f7520646f206e6f74206861766520616e792077696e6e696e672062657400600082015250565b6000610adc601f83610a95565b9150610ae782610aa6565b602082019050919050565b60006020820190508181036000830152610b0b81610acf565b9050919050565b7f4e487b7100000000000000000000000000000000000000000000000000000000600052601160045260246000fd5b6000610b4c82610986565b9150610b5783610986565b9250817fffffffffffffffffffffffffffffffffffffffffffffffffffffffffffffffff0483118215151615610b9057610b8f610b12565b5b828202905092915050565b7f4e487b7100000000000000000000000000000000000000000000000000000000600052601260045260246000fd5b6000610bd582610986565b9150610be083610986565b925082610bf057610bef610b9b565b5b828204905092915050565b6000610c0682610986565b9150610c1183610986565b9250827fffffffffffffffffffffffffffffffffffffffffffffffffffffffffffffffff03821115610c4657610c45610b12565b5b828201905092915050565b6000604082019050610c66600083018561092f565b610c736020830184610990565b9392505050565b7f6f6e6c79206f7261636c65000000000000000000000000000000000000000000600082015250565b6000610cb0600b83610a95565b9150610cbb82610c7a565b602082019050919050565b60006020820190508181036000830152610cdf81610ca3565b9050919050565b600081519050919050565b600081905092915050565b60005b83811015610d1a578082015181840152602081019050610cff565b83811115610d29576000848401525b50505050565b6000610d3a82610ce6565b610d448185610cf1565b9350610d54818560208601610cfc565b80840191505092915050565b6000610d6c8284610d2f565b915081905092915050565b7f5472616e73616374696f6e206661696c65640000000000000000000000000000600082015250565b6000610dad601283610a95565b9150610db882610d77565b602082019050919050565b60006020820190508181036000830152610ddc81610da0565b905091905056fea26469706673582212200d335f3b34438fb475673fe6e945c4a675d14134740b2b19d2844b46e1aaca2464736f6c634300080e0033",
  "immutableReferences": {},
  "source": "// SPDX-License-Identifier: MIT\npragma solidity >=0.4.22 <0.9.0;\n\ncontract PredictionMarket {\n    enum Side {\n        Biden,\n        Trump\n    }\n    struct Result {\n        Side winner;\n        Side loser;\n    }\n    Result result;\n    bool electionFinished;\n    address tokenAddress;\n\n    mapping(Side => uint256) public bets;\n    mapping(address => mapping(Side => uint256)) public betsPerGambler;\n    address public oracle;\n\n    constructor(address _oracle, address _tokenAddress) {\n        oracle = _oracle;\n        tokenAddress = _tokenAddress;\n    }\n\n    function setTokenAddress(address _tokenAddress) external {\n        tokenAddress = _tokenAddress;\n    }\n\n    function placeBet(Side _side, uint256 amount) external {\n        // require(electionFinished == false, \"election is finished\");\n        // IESDToken(tokenAddress).transferTo(address(this), amount);\n        // tokenAddress.delegatecall(abi.encodeWithSelector(IESDToken.transferTo.selector, address(this), amount));\n        (bool success, bytes memory data) = tokenAddress.delegatecall(\n            abi.encodeWithSignature(\n                \"transfer(address, uint256)\",\n                address(this),\n                amount\n            )\n        );\n        require(success == false, \"Transaction failed\");\n        bets[_side] += amount;\n        betsPerGambler[msg.sender][_side] += amount;\n    }\n\n    function withdrawGain() external {\n        uint256 gamblerBet = betsPerGambler[msg.sender][result.winner];\n        require(gamblerBet > 0, \"you do not have any winning bet\");\n        // require(electionFinished == true, \"election not finished yet\");\n        // address payable winner = payable(msg.sender);\n        uint256 gain = gamblerBet +\n            (bets[result.loser] * gamblerBet) /\n            bets[result.winner];\n        betsPerGambler[msg.sender][Side.Biden] = 0;\n        betsPerGambler[msg.sender][Side.Trump] = 0;\n        IESDToken(tokenAddress).transferTo(msg.sender, gain);\n    }\n\n    function reportResult(Side _winner, Side _loser) external {\n        require(oracle == msg.sender, \"only oracle\");\n        result.winner = _winner;\n        result.loser = _loser;\n        // electionFinished = true;\n    }\n}\n\ninterface IESDToken {\n    function _transferFrom(\n        address _from,\n        address _to,\n        uint256 _amount\n    ) external;\n\n    function approveTx(address _spender, uint256 _amount) external;\n\n    function allow(address _from, address _to) external view;\n\n    function transferTo(address _to, uint256 _amount) external;\n}\n",
  "sourcePath": "/home/user/Documents/Truffle-projects/election_gambling_v2/contracts/PredictionMarket.sol",
  "compiler": {
    "name": "solc",
    "version": "0.8.14+commit.80d49f37.Emscripten.clang"
  },
  "schemaVersion": "3.4.7",
  "updatedAt": "2022-06-20T06:34:04.225Z",
  "networkType": "ethereum",
  "devdoc": {
    "kind": "dev",
    "methods": {},
    "version": 1
  },
  "userdoc": {
    "kind": "user",
    "methods": {},
    "version": 1
  }
}