{
  "contractName": "PredictionMarket",
  "abi": [
    {
      "inputs": [
        {
          "internalType": "address",
          "name": "_oracle",
          "type": "address"
        },
        {
          "internalType": "address",
          "name": "_tokenAddress",
          "type": "address"
        }
      ],
      "stateMutability": "nonpayable",
      "type": "constructor"
    },
    {
      "inputs": [
        {
          "internalType": "enum PredictionMarket.Side",
          "name": "",
          "type": "uint8"
        }
      ],
      "name": "bets",
      "outputs": [
        {
          "internalType": "uint256",
          "name": "",
          "type": "uint256"
        }
      ],
      "stateMutability": "view",
      "type": "function",
      "constant": true
    },
    {
      "inputs": [
        {
          "internalType": "address",
          "name": "",
          "type": "address"
        },
        {
          "internalType": "enum PredictionMarket.Side",
          "name": "",
          "type": "uint8"
        }
      ],
      "name": "betsPerGambler",
      "outputs": [
        {
          "internalType": "uint256",
          "name": "",
          "type": "uint256"
        }
      ],
      "stateMutability": "view",
      "type": "function",
      "constant": true
    },
    {
      "inputs": [],
      "name": "oracle",
      "outputs": [
        {
          "internalType": "address",
          "name": "",
          "type": "address"
        }
      ],
      "stateMutability": "view",
      "type": "function",
      "constant": true
    },
    {
      "inputs": [
        {
          "internalType": "address",
          "name": "_tokenAddress",
          "type": "address"
        }
      ],
      "name": "setTokenAddress",
      "outputs": [],
      "stateMutability": "nonpayable",
      "type": "function"
    },
    {
      "inputs": [
        {
          "internalType": "enum PredictionMarket.Side",
          "name": "_side",
          "type": "uint8"
        },
        {
          "internalType": "uint256",
          "name": "amount",
          "type": "uint256"
        }
      ],
      "name": "placeBet",
      "outputs": [],
      "stateMutability": "nonpayable",
      "type": "function"
    },
    {
      "inputs": [],
      "name": "withdrawGain",
      "outputs": [],
      "stateMutability": "nonpayable",
      "type": "function"
    },
    {
      "inputs": [
        {
          "internalType": "enum PredictionMarket.Side",
          "name": "_winner",
          "type": "uint8"
        },
        {
          "internalType": "enum PredictionMarket.Side",
          "name": "_loser",
          "type": "uint8"
        }
      ],
      "name": "reportResult",
      "outputs": [],
      "stateMutability": "nonpayable",
      "type": "function"
    }
  ],
  "bytecode": "0x608060405234801561001057600080fd5b50604051610de9380380610de98339818101604052810190610032919061011d565b81600460006101000a81548173ffffffffffffffffffffffffffffffffffffffff021916908373ffffffffffffffffffffffffffffffffffffffff160217905550806001806101000a81548173ffffffffffffffffffffffffffffffffffffffff021916908373ffffffffffffffffffffffffffffffffffffffff160217905550505061015d565b600080fd5b600073ffffffffffffffffffffffffffffffffffffffff82169050919050565b60006100ea826100bf565b9050919050565b6100fa816100df565b811461010557600080fd5b50565b600081519050610117816100f1565b92915050565b60008060408385031215610134576101336100ba565b5b600061014285828601610108565b925050602061015385828601610108565b9150509250929050565b610c7d8061016c6000396000f3fe608060405234801561001057600080fd5b506004361061007d5760003560e01c80637dc0d1d01161005b5780637dc0d1d0146100c45780637e0ecc00146100e25780639d5a373914610112578063dcb3b30e146101425761007d565b806326a4e8d2146100825780632b539c861461009e5780634ec942b7146100a8575b600080fd5b61009c600480360381019061009791906107c7565b61015e565b005b6100a66101a1565b005b6100c260048036038101906100bd9190610819565b6104ab565b005b6100cc610597565b6040516100d99190610868565b60405180910390f35b6100fc60048036038101906100f79190610883565b6105bd565b60405161010991906108c9565b60405180910390f35b61012c600480360381019061012791906108e4565b6105d5565b60405161013991906108c9565b60405180910390f35b61015c60048036038101906101579190610950565b6105fa565b005b806001806101000a81548173ffffffffffffffffffffffffffffffffffffffff021916908373ffffffffffffffffffffffffffffffffffffffff16021790555050565b6000600360003373ffffffffffffffffffffffffffffffffffffffff1673ffffffffffffffffffffffffffffffffffffffff16815260200190815260200160002060008060000160009054906101000a900460ff16600181111561020857610207610990565b5b600181111561021a57610219610990565b5b81526020019081526020016000205490506000811161026e576040517f08c379a000000000000000000000000000000000000000000000000000000000815260040161026590610a1c565b60405180910390fd5b6000600260008060000160009054906101000a900460ff16600181111561029857610297610990565b5b60018111156102aa576102a9610990565b5b81526020019081526020016000205482600260008060000160019054906101000a900460ff1660018111156102e2576102e1610990565b5b60018111156102f4576102f3610990565b5b81526020019081526020016000205461030d9190610a6b565b6103179190610af4565b826103229190610b25565b90506000600360003373ffffffffffffffffffffffffffffffffffffffff1673ffffffffffffffffffffffffffffffffffffffff168152602001908152602001600020600080600181111561037a57610379610990565b5b600181111561038c5761038b610990565b5b8152602001908152602001600020819055506000600360003373ffffffffffffffffffffffffffffffffffffffff1673ffffffffffffffffffffffffffffffffffffffff16815260200190815260200160002060006001808111156103f4576103f3610990565b5b600181111561040657610405610990565b5b81526020019081526020016000208190555060018054906101000a900473ffffffffffffffffffffffffffffffffffffffff1673ffffffffffffffffffffffffffffffffffffffff1663cb7125353033846040518463ffffffff1660e01b815260040161047593929190610b7b565b600060405180830381600087803b15801561048f57600080fd5b505af11580156104a3573d6000803e3d6000fd5b505050505050565b3373ffffffffffffffffffffffffffffffffffffffff16600460009054906101000a900473ffffffffffffffffffffffffffffffffffffffff1673ffffffffffffffffffffffffffffffffffffffff161461053b576040517f08c379a000000000000000000000000000000000000000000000000000000000815260040161053290610bfe565b60405180910390fd5b816000800160006101000a81548160ff0219169083600181111561056257610561610990565b5b0217905550806000800160016101000a81548160ff0219169083600181111561058e5761058d610990565b5b02179055505050565b600460009054906101000a900473ffffffffffffffffffffffffffffffffffffffff1681565b60026020528060005260406000206000915090505481565b6003602052816000526040600020602052806000526040600020600091509150505481565b60018054906101000a900473ffffffffffffffffffffffffffffffffffffffff1673ffffffffffffffffffffffffffffffffffffffff16636bf4724030836040518363ffffffff1660e01b8152600401610655929190610c1e565b600060405180830381600087803b15801561066f57600080fd5b505af1158015610683573d6000803e3d6000fd5b50505050806002600084600181111561069f5761069e610990565b5b60018111156106b1576106b0610990565b5b815260200190815260200160002060008282546106ce9190610b25565b9250508190555080600360003373ffffffffffffffffffffffffffffffffffffffff1673ffffffffffffffffffffffffffffffffffffffff168152602001908152602001600020600084600181111561072a57610729610990565b5b600181111561073c5761073b610990565b5b815260200190815260200160002060008282546107599190610b25565b925050819055505050565b600080fd5b600073ffffffffffffffffffffffffffffffffffffffff82169050919050565b600061079482610769565b9050919050565b6107a481610789565b81146107af57600080fd5b50565b6000813590506107c18161079b565b92915050565b6000602082840312156107dd576107dc610764565b5b60006107eb848285016107b2565b91505092915050565b6002811061080157600080fd5b50565b600081359050610813816107f4565b92915050565b600080604083850312156108305761082f610764565b5b600061083e85828601610804565b925050602061084f85828601610804565b9150509250929050565b61086281610789565b82525050565b600060208201905061087d6000830184610859565b92915050565b60006020828403121561089957610898610764565b5b60006108a784828501610804565b91505092915050565b6000819050919050565b6108c3816108b0565b82525050565b60006020820190506108de60008301846108ba565b92915050565b600080604083850312156108fb576108fa610764565b5b6000610909858286016107b2565b925050602061091a85828601610804565b9150509250929050565b61092d816108b0565b811461093857600080fd5b50565b60008135905061094a81610924565b92915050565b6000806040838503121561096757610966610764565b5b600061097585828601610804565b92505060206109868582860161093b565b9150509250929050565b7f4e487b7100000000000000000000000000000000000000000000000000000000600052602160045260246000fd5b600082825260208201905092915050565b7f796f7520646f206e6f74206861766520616e792077696e6e696e672062657400600082015250565b6000610a06601f836109bf565b9150610a11826109d0565b602082019050919050565b60006020820190508181036000830152610a35816109f9565b9050919050565b7f4e487b7100000000000000000000000000000000000000000000000000000000600052601160045260246000fd5b6000610a76826108b0565b9150610a81836108b0565b9250817fffffffffffffffffffffffffffffffffffffffffffffffffffffffffffffffff0483118215151615610aba57610ab9610a3c565b5b828202905092915050565b7f4e487b7100000000000000000000000000000000000000000000000000000000600052601260045260246000fd5b6000610aff826108b0565b9150610b0a836108b0565b925082610b1a57610b19610ac5565b5b828204905092915050565b6000610b30826108b0565b9150610b3b836108b0565b9250827fffffffffffffffffffffffffffffffffffffffffffffffffffffffffffffffff03821115610b7057610b6f610a3c565b5b828201905092915050565b6000606082019050610b906000830186610859565b610b9d6020830185610859565b610baa60408301846108ba565b949350505050565b7f6f6e6c79206f7261636c65000000000000000000000000000000000000000000600082015250565b6000610be8600b836109bf565b9150610bf382610bb2565b602082019050919050565b60006020820190508181036000830152610c1781610bdb565b9050919050565b6000604082019050610c336000830185610859565b610c4060208301846108ba565b939250505056fea2646970667358221220f4f675a879d02d9947a0812596533dbd02f2c8658f263de401f52eaebea45bfe64736f6c634300080e0033",
  "immutableReferences": {},
  "source": "// SPDX-License-Identifier: MIT\npragma solidity >=0.4.22 <0.9.0;\n\ncontract PredictionMarket {\n    enum Side {\n        Biden,\n        Trump\n    }\n    struct Result {\n        Side winner;\n        Side loser;\n    }\n    Result result;\n    bool electionFinished;\n    address tokenAddress;\n\n    mapping(Side => uint256) public bets;\n    mapping(address => mapping(Side => uint256)) public betsPerGambler;\n    address public oracle;\n\n    constructor(address _oracle, address _tokenAddress) {\n        oracle = _oracle;\n        tokenAddress = _tokenAddress;\n    }\n\n    function setTokenAddress(address _tokenAddress) external {\n        tokenAddress = _tokenAddress;\n    }\n\n    function placeBet(Side _side, uint256 amount) external {\n        // require(electionFinished == false, \"election is finished\");\n        IESDToken(tokenAddress).approveTx(address(this), amount);\n        bets[_side] += amount;\n        betsPerGambler[msg.sender][_side] += amount;\n    }\n\n    function withdrawGain() external {\n        uint256 gamblerBet = betsPerGambler[msg.sender][result.winner];\n        require(gamblerBet > 0, \"you do not have any winning bet\");\n        // require(electionFinished == true, \"election not finished yet\");\n        // address payable winner = payable(msg.sender);\n        uint256 gain = gamblerBet +\n            (bets[result.loser] * gamblerBet) /\n            bets[result.winner];\n        betsPerGambler[msg.sender][Side.Biden] = 0;\n        betsPerGambler[msg.sender][Side.Trump] = 0;\n        IESDToken(tokenAddress)._transferFrom(address(this), msg.sender, gain);\n    }\n\n    function reportResult(Side _winner, Side _loser) external {\n        require(oracle == msg.sender, \"only oracle\");\n        result.winner = _winner;\n        result.loser = _loser;\n        // electionFinished = true;\n    }\n}\n\ninterface IESDToken {\n    function _transferFrom(\n        address _from,\n        address _to,\n        uint256 _amount\n    ) external;\n\n    function approveTx(address _spender, uint256 _amount) external;\n\n    function allow(address _from, address _to) external view;\n}\n",
  "sourcePath": "/home/user/Documents/Truffle-projects/election_gambling_v2/contracts/PredictionMarket.sol",
  "compiler": {
    "name": "solc",
    "version": "0.8.14+commit.80d49f37.Emscripten.clang"
  },
  "schemaVersion": "3.4.7",
  "updatedAt": "2022-06-17T05:09:22.376Z",
  "networkType": "ethereum",
  "devdoc": {
    "kind": "dev",
    "methods": {},
    "version": 1
  },
  "userdoc": {
    "kind": "user",
    "methods": {},
    "version": 1
  }
}